:020000040800F2
:1000000048FA002049010008D549000801360008D7
:10001000D1490008E10600085D72000800000000F8
:10002000000000000000000000000000ED6C00086F
:10003000E90800080000000013050008F157000857
:100040006301000863010008630100086301000800
:1000500063010008630100086301000863010008F0
:1000600063010008630100086301000863010008E0
:1000700063010008630100086301000863010008D0
:1000800063010008630100086301000863010008C0
:1000900063010008630100086301000863010008B0
:1000A00063010008630100086301000863010008A0
:1000B0006301000863010008630100086301000890
:1000C0006301000863010008630100086301000880
:1000D00063010008C96F000863010008630100089C
:1000E0006301000863010008630100086301000860
:1000F0006301000863010008630100086301000850
:10010000630100086301000863010008630100083F
:10011000630100086301000863010008630100082F
:10012000630100086301000863010008630100081F
:10013000DFF810D000F09EF900480047BDBD000870
:10014000AFF3008048FA0020064880470648004781
:10015000FEE7FEE7FEE7FEE7FEE7FEE7FEE7FEE777
:10016000FEE7FEE7796E00083101000872B67047BD
:1001700062B67047EFF3108072B6704780F3108854
:10018000704730BF704720BF7047B0FA80F07047AB
:1001900090FAA0F0B0FA80F0704790FAA0F07047A3
:1001A000002800D17047002900D17047002A00D1F3
:1001B00070472DE9F81F00F0030301F00304A34288
:1001C00011D1C3F1040303F00303012B1DD3012A52
:1001D00000D2F2E011F8014B00F8014BA3F101034A
:1001E000A2F10102F1E700F0010301F00104A342D2
:1001F00000D094E0012B44D311F8014B00F8014BDF
:10020000A3F10103A2F10102F4E7B2F5B47F26D312
:10021000B1E8F81FA0E8F81FB1E8F81FA0E8F81F40
:10022000B1E8F81FA0E8F81FB1E8F81FA0E8F81F30
:10023000B1E8F81FA0E8F81FB1E8F81FA0E8F81F20
:10024000B1E8F81FA0E8F81FB1E8F81FA0E8F81F10
:10025000B1E8F81FA0E8F81FA2F5B472D5E7282A84
:1002600006D3B1E8F81FA0E8F81FA2F12802F6E7CC
:10027000042A06D351F8043B40F8043BA2F10402DF
:10028000F6E7202A42D331F8023B20F8023B31F84E
:10029000023B20F8023B31F8023B20F8023B31F8E8
:1002A000023B20F8023B31F8023B20F8023B31F8D8
:1002B000023B20F8023B31F8023B20F8023B31F8C8
:1002C000023B20F8023B31F8023B20F8023B31F8B8
:1002D000023B20F8023B31F8023B20F8023B31F8A8
:1002E000023B20F8023B31F8023B20F8023B31F898
:1002F000023B20F8023B31F8023B20F8023B31F888
:10030000023B20F8023BA2F12002BAE7022A06D300
:1003100031F8023B20F8023BA2F10202F6E7102A74
:1003200042D311F8013B00F8013B11F8013B00F802
:10033000013B11F8013B00F8013B11F8013B00F8CB
:10034000013B11F8013B00F8013B11F8013B00F8BB
:10035000013B11F8013B00F8013B11F8013B00F8AB
:10036000013B11F8013B00F8013B11F8013B00F89B
:10037000013B11F8013B00F8013B11F8013B00F88B
:10038000013B11F8013B00F8013B11F8013B00F87B
:10039000013B11F8013B00F8013B11F8013B00F86B
:1003A000013BA2F11002BAE7012A06D311F8013B82
:1003B00000F8013BA2F10102F6E7BDE8F81F704723
:1003C0000649074A0868504343F23902104408605E
:1003D0004008704701490860704700001002002083
:1003E0006D4EC64110B5431A934209D2831888183E
:1003F00003E010F8011D03F8011D521EF9D210BDD3
:1004000040EA01039B0703D009E008C9121F08C096
:10041000042AFAD203E011F8013B00F8013B521E16
:10042000F9D210BDD2B201E000F8012B491EFBD277
:1004300070470022F6E710B513460A4604461946EF
:10044000FFF7F0FF204610BD30B50B4601460020F7
:100450002022012409E021FA02F59D4205D303FA86
:1004600002F5491B04FA02F52844151EA2F1010207
:10047000F1DC30BD064C074D06E0E06840F00103BA
:1004800094E8070098471034AC42F6D3FFF754FEC7
:10049000C4DA0008E4DA000870B58C1810F8015BC3
:1004A00015F0070301D110F8013B2A1106D110F80D
:1004B000012B03E010F8016B01F8016B5B1EF9D111
:1004C0002B0705D40023521E0DD401F8013BFAE797
:1004D00010F8013BCB1A921C03E013F8015B01F802
:1004E000015B521EF9D5A142D8D3002070BD000097
:1004F00018484FF0FF010170002080F3098816486A
:10050000016881F3088815484FF08051016062B698
:10051000FEE772B6EFF3098028B1203880E8F00FCB
:100520000F490968086000B50E4880475DF804EB84
:100530000D480E490A78027009480D490A680260A0
:10054000106890E8F00F203080F309884EF0040E18
:1005500062B6704722ED00E07800002004ED00E074
:1005600070000020515500082800002029000020BC
:10057000740000202DE9F0418AB000240326CDE963
:10058000064614480190059480274FF00C08072078
:10059000CDE9028700900F4809AD089504942346E1
:1005A0000D4A0EA1B43804F00FFECDE906461048FE
:1005B000019005940620CDE9028700900C4808952B
:1005C000049400230B4A0CA1B43804F0FDFD0AB0DA
:1005D000BDE8F081800500202106000847616D65B7
:1005E0002052656E646572205461736B00000000D8
:1005F000340800200906000847616D65204C6F67CC
:100600006963205461736B0010B54FF48051034847
:1006100000F03FFBBDE8104000F0FCB900140140C1
:1006200010B54FF48051034800F033FBBDE8104093
:1006300000F0F2B90014014008B500F02DF800F008
:1006400050F800F03BF804F0C4F9684604F064FD8B
:1006500004A00BF047FAFFF78DFF6946094804F044
:1006600033FE08BD4372656174696E672041707026
:100670006C69636174696F6E205461736B732E2EA5
:100680002E0A0D001802002000B585B0684606F05D
:100690004FFA019805B000BD10B500F01DF804F048
:1006A0002DF906F039FC0121402006F025FA03F06F
:1006B00075F8BDE8104001F035BA000010B5FFF73D
:1006C000E3FF04490968B0FBF1F0BDE8104005F014
:1006D000A1B8000054BE00084FF4A06004F0AEB909
:1006E000FEE700F001B8000002490020086000F0B9
:1006F00009B800001400002001490860704700009C
:100700001400002010B50948016841F080710160B3
:10071000074800214160016841F001010160FFF7D5
:10072000B3FFBDE81040FFF7E7BF0000FCED00E0BD
:10073000001000E00148406870470000001000E031
:100740002DE9FE4F06460F46234CA068009046EA6E
:10075000070010434FF0FF390FD06946606802F080
:10076000DBFE8046D4E9060101AB02AA04F025F9BC
:1007700001990B4601F1040C27E04846BDE8FE8FC5
:100780000298024600F1040A1CE05C1A08EB84049B
:10079000151A645D012C14D1DC191F2C02DA95198D
:1007A000102D01DB4846E9E7002C01DB002D01DAC2
:1007B0004846E3E7DFF824B00BEB0414645D012C3A
:1007C00007D0521C5245E0DB5B1C6345D8DB0020A0
:1007D000D4E74846D2E70000982B0020E82100200B
:1007E00030B40446084611460B1902195B1E30BC92
:1007F000521E00F0D5BE00002DE9F04389B000255F
:100800001E24234F4FF001084FF0000901AE06F8F7
:1008100004800F2007EB04110A5C32B1401E00284F
:10082000FADA305D012803D005E006F80490F8E715
:10083000204600F02FF8641E002CE8DA1E24305DFC
:10084000012823D0002D16DD04EB050807EB041169
:1008500007EB08101022FFF7A3FC07EB841107EB4E
:10086000881001F5F87100F5F8704022FFF798FC48
:10087000204600F00FF8641E002CE0DA01A802F018
:10088000C0FE06F0EDF909B0BDE8F0836D1CF2E79B
:10089000E82100200021044B002203EB0010425409
:1008A000491C1029FBDB7047E82100202DE9F05F8F
:1008B00081460E4690469A460025002405FB06AB6D
:1008C00009EB8507385D012805D104FB06815A46EE
:1008D0003046FFF785FF641C042CF3DB6D1C042DF0
:1008E000EBDB0020BDE8F09F70472DE9F0410546A5
:1008F0000C4617461E46069801F01FFE7019031B92
:100900007819021B5B1E521E31193819BDE8F041DF
:1009100001F038B810B5054801F02CFE0A22BDE8F8
:100920001040CA2102A000F0F9BF0000D4CE000898
:10093000507265766965772041726561000000003C
:100940002DE9FF4F81B08246DDF83C900E46984677
:10095000002500240E980AEB850705FB060B385D81
:10096000012808D104FB06825B46CDF80090304692
:100970000399FFF7BAFF641C042CF0DB6D1C042DF7
:10098000E7DB05B00020BDE8F08F000010B5AF2414
:10099000104801F0EFFDAA22CA210FA000F0BEFF0F
:1009A000104801F0E7FDBE2221460FA000F0A2FF93
:1009B000CD2221460FA000F09DFFDC22214610A091
:1009C00000F098FF2146BDE81040EB220FA000F098
:1009D00091BF0000D4CE0008546970732041726545
:1009E0006100000020C600086D6F7665206C6566AA
:1009F000740000006D6F766520726967687400008E
:100A00007370656564207570000000007370696E16
:100A1000000000007047000086B00121052003F0AF
:100A200077F803F01DF903F011F903F0C9F8FA2083
:100A300003F0D6F806F0FCFB4FF40046002505ACA9
:100A400006F0CCF802AB03AA04A906F03DFADDE9F2
:100A500002210498FFF774FE20B9DDE90221049811
:100A600006F0BAFB0023324619461348009404F0FE
:100A70005BFABDF8140078B9002201211046FFF797
:100A80005FFE90B106F034F9FFF7B6FE06F0C2F94A
:100A900006F0D6F906F0CCFB0022CDE90054212364
:100AA0001146104604F0AEFDCAE7002201211046AF
:100AB00006F092FBF0E700000C2000208000A0F17F
:100AC000C040002904D0016841F001010160704775
:100AD0000168024A1140016070470000FEFF0F00EC
:100AE00010B5D0E901121143D0E903231A43114391
:100AF0004269114382691143C2691143026A114379
:100B0000426A1143826A1143C26A1143026B114364
:100B100002689200A2F1C04211608168082907D1E1
:100B200001688900A1F1C0410A6842F040020A60F0
:100B3000416BD1E9002342EA03128B688C891B02C6
:100B400043EA04431A430B8A42EA03520B7D896944
:100B500042EA03620A430168491C8900A1F1C041CD
:100B60000A60C16AB1F5804F08D000686FF070412B
:100B70008000A0F1C040C0F8041110BD816BD1E924
:100B8000002342EA03128B680C8A1B0243EA0453D7
:100B90001A430B7D896942EA036200680A438000B8
:100BA000A0F1C040C0F8042110BD000010B5002025
:100BB00001F0B8FC6FF07F4001F0BFFC012001F0B4
:100BC00017FD002001F022FD002001F02FFD002084
:100BD00001F0C4FC0448006801F0CCFCBDE8104002
:100BE000002001F0D7BC00009C0000202DE9F0415E
:100BF0000022CC7804F00F03E40601D58C7823435F
:100C00000C784FF00F0714F0FF0F4FF0010C1CD0C1
:100C100005680CFA02F40E882640A64211D196000F
:100C200007FA06F825EA080503FA06F848EA050572
:100C3000CE78282E02D0482E02D002E0446100E097
:100C40000461521C082AE4D305600A88FF2A1ED9D1
:100C50004568002202F108060CFA06F40E882640C8
:100C6000A64210D1960007FA06F825EA080503FA0D
:100C700006F848EA0505CE78282E00D14461CE78E2
:100C8000482E00D10461521C082AE3D34560BDE818
:100C9000F081416170470161704770B50C460546AF
:100CA00000F0F0F8A8682168C16261680163A1687A
:100CB0004163490707D5D0E90021C0E90012D0E916
:100CC0000221C0E90212A18981842169002903D08F
:100CD00001DC4FF00001016270BD2DE9F0411E46BC
:100CE00017468846054600F0CDF8AC6868224146B4
:100CF00004F58470FFF776FB2846B8472846B047CE
:100D0000286980688047A062BDE8F08110B504467C
:100D100000F0B8F8A0680E494C30114AC1650D4981
:100D200081650D4901660D4981660021C166136820
:100D300043660C4BC0E91E315168416730F8261CF0
:100D400021F0030120F8261C0749416410BD000072
:100D5000BDAF000805B1000885AF0008CFAB0008A3
:100D6000F00000209FAC000841AF000810B5044619
:100D700000F088F8A4680C489034102120650B48D6
:100D800060650B48A0650B48E0650B48E0600B48C8
:100D90002061206BA06654F89029204690471020CF
:100DA000A0630748606410BDAD930008FD9C000877
:100DB000C50D0008F50E000889AB000849B300080E
:100DC000CCD80008F8B5846815460F4694F826007C
:100DD00080074CD5D4F8FC30204698470646D4F816
:100DE00000312A46394620469847D4F894300546C3
:100DF0001BB100220121204698472069B04201DD45
:100E0000012000E00020A169B14201DA012100E0E7
:100E1000002108436169A94201DD012100E00021B0
:100E20000843E169A94201DA012100E000210843F9
:100E30000AD06068401E00902368D4F8A4705B1E3E
:100E4000002211462046B847D4F8A8302A46314639
:100E500020469847D4F89C1020468847D4F8943010
:100E600005466BB1012200212046984708E0D4F8DE
:100E7000A83020469847D4F89C102046884705465D
:100E80002846F8BD70B504468068002812D14FF49A
:100E9000B875284600F076FA2A460021A06002F0D4
:100EA000F7FAA0680221C1840121046401620249A9
:100EB000C0F8041170BD0000BD0E000810B590B060
:100EC000044620220A496846FFF78CFA0849202286
:100ED000203108A8FFF786FA606B5DF82010C4F88F
:100EE000FC1008A951F82000C4F8000110B010BD92
:100EF000F4BE00082DE9F84384689846154694F836
:100F000026000F46800740D5D4F8FC30204698478D
:100F10000646D4F800312A46394620469847054609
:100F20002069B04201DD012000E00020A169B1424A
:100F300001DA012100E0002108436169A94201DDD5
:100F4000012100E000210843E169A94201DA012101
:100F500000E0002108430AD06068401E009023682A
:100F6000D4F8A4705B1E002211462046B847D4F87E
:100F7000A8302A46314620469847D4F8A02001B030
:100F800041462046BDE8F0431047D4F8A830F2E7C8
:100F90002DE9F04FDFF828B191B04FF0FF35DBF8C5
:100FA0000030B3F922100691DE69B3F924A0F46988
:100FB000A189814206D8E289824203D3471AD4F834
:100FC000008012E0D4E90181002970D00A888242B1
:100FD0006DD84D8885426AD3801A82B2486800EB8A
:100FE0008200B0F90070B0F90250781C5FD0307EFA
:100FF000A27C014600FB02F9207CCDE90810B3F980
:101000002A60304603F08AFAC0B20E90DBF8001076
:1010100007FB0980A37C8A6B0127CDE90402CDE997
:101020000273C869DDE90832C17E807ECDE9000126
:101030005146069802F09CFE681C18D046F002004B
:1010400003F06CFADBF80000A37C05FB0981826BDE
:10105000CDE90273CDE90412C069DDE90832C17E31
:10106000807ECDE900015146069802F081FEDBF852
:1010700000005D46C069417E007E814214D9022E87
:1010800012D086F0040003F049FA2868C069027E95
:10109000C37E857E02FB03A1437E099A06985344D2
:1010A00002FB050202F0C8FF0E9803F037FADBF8E6
:1010B0000000627C418C1144418411B0BDE8F08F86
:1010C000A000002004480068C069C06909B1027C22
:1010D0000A60407C70470000A000002002200880C9
:1010E0007047C06982898A4202D8C2898A4210D276
:1010F000806880B102888A420DD843888B420AD327
:10110000406800EB8100A0EB8200B0F900000028ED
:1011100001DB012070470020704700002DE9F043FB
:101120002F4C034687B020681946B0F92A80C06961
:10113000C06900F082F800284ED041680088181A73
:1011400001EBC0054046AE7803F0E8F9814620681F
:101150006A680123816BCDE90236CDE90421C169BA
:10116000CB7E8A7ECDE900230B7EB0F924102A784D
:10117000B0F9220002F0FCFD2068C069477E067EBF
:10118000B7421DD9C07E47434643B8F1020F17D07E
:1011900000F060FC804600F02BFC01F0CEF92168E5
:1011A0002A78CB69B1F92200B1F92410DB7E02FB69
:1011B0000302CB19314402F03FFF404601F0BDF974
:1011C000484603F0ABF920686A78C369B0F9221089
:1011D0009B7E02FB0311418407B0BDE8F083000051
:1011E000A000002030B50E4C05460B46206829466D
:1011F000C069C06900F021F8002810D0416800885B
:1012000024682A1A0120E46900EBC200085CA47E6D
:101210006043002B03D011F832106143196030BDD8
:10122000A000002001200880704700B5C06900F0D0
:1012300004F8002800D0012000BD06E002888A42A0
:1012400002D842888A4202D280680028F6D17047CC
:1012500070B500240E4D16E028690E4900EBC4104D
:10126000001D78220968FFF7BDF82869002100EB0E
:10127000C410016000F10C018161011D0A1DC0E96B
:101280000F12641C4164A8688442E5DB70BD000055
:10129000F8000020A000002070B50D490B48086040
:1012A000084602F0EDF80A4C143CA068C501284637
:1012B00000F068F82A460021206102F0E9F84FF0BA
:1012C000FF302060BDE8704001F0A8BB55A90008C0
:1012D0000C01002010B5040009D000F059FC204694
:1012E00007F074F8044601F057FB204610BD0020BB
:1012F00010BD38B5054600F04BFC2846FFF7EAFF65
:10130000040009D000F0BAF82A460021009002F04B
:10131000BFF8684600F0F0F801F03EFB204638BD0B
:10132000024A106021F00300506070470CF5002065
:1013300010B5040016D000F02BFC0B48006B10F821
:10134000341059B1022909D2042101EBC4014158DA
:10135000486806F0FFFF204609F004FCBDE8104095
:1013600001F01ABB10BD000050F40020002805D089
:10137000034A916B016001B14860906370470000BF
:1013800050F400202DE9F041044609F0B5F9264853
:10139000E41C24F00305C16B2D1DA94200D90D46A4
:1013A000846B13E054F8042CAA420ED184B1216856
:1013B00009B162684A60616809B122680A60826B9B
:1013C000A2422ED1216881632BE02468002CE9D150
:1013D0008046416B80680F1857F8040C3E1A30683D
:1013E00038B1002009F0C8FC57F8040C3E1A3068E8
:1013F000B8B97068A84214DB3044441B304609F089
:1014000073FCD8F80810491BC8F80810D8F8101059
:101410002944C8F8101070683146401B06F09AFF46
:1014200020C42046BDE8F08150F4002010B500240F
:1014300009F062F90C490F2001EBC002126C1AB1DD
:1014400001EBC000006C08E0401EF5D508E04168E3
:10145000A14200D90C46806810B180680028F6D1FE
:10146000A4F10C0010BD000050F4002002484169B6
:10147000491C41617047000050F4002005498A6909
:10148000521C8A61096B01EBC0010A78521C0A7078
:1014900000F04AB850F4002010B500F079FBFFF7D7
:1014A000C5FF64220849B0F5800F04D990FBF2F41F
:1014B000C869444303E0C9694143B1FBF2F401F058
:1014C0006BFA204610BD000050F40020054910289A
:1014D00005D94A68B0EB520F02D3500800E0102043
:1014E000886070470CF5002002484169491E41613F
:1014F0007047000050F400200A4902680B6B52F854
:10150000082C03EBC2021378022B03D38B690BB1B7
:101510005B1E8B611178491E117000210160084625
:101520007047000050F40020002806D00349042230
:1015300002EBC000096B08580830704750F40020D7
:1015400010B5C2B2CBB2D21A02D5C2F1000212B2A9
:1015500093B2C0F30722C1F3072403FB03F3121B6A
:1015600001D5524212B2000C92B2A0EB114002FB24
:10157000023200B2002801DA404200B280B200FB21
:10158000002010BD10B50021084600F0B9FA40F661
:10159000FF725042BDE8104013460146AFF3008091
:1015A0002DE9FC411C4615460E46074600F0F0FAB0
:1015B000042002F0B3FF80461248C068C16C006D81
:1015C0000F4406440D440444ADF80070ADF80450D7
:1015D000ADF80260ADF80640684606F04DFB07E046
:1015E00023462A463146384602F026FD06F006FB21
:1015F0000028F5D1404602F091FF01F0CDF9BDE899
:10160000FC810000940000202DE9F0411C461646A4
:101610000D460746022B02DB0020BDE8F0811C20AE
:10162000FFF7B0FE0028F8D00DB105610AE0094AC5
:1016300052F8241009B905E011460A68002AFBD1C6
:101640000969016184618682002101604160C0E90D
:101650000217E2E7B800002070B51D46FFF7D4FF7F
:10166000040001D000F00EF8E068006820B90348DB
:10167000006800EB85008465204670BDA000002056
:10168000FFF774BE70B590B38269022A30DA1C4C41
:1016900054F8221019B944F822002FE019464B687B
:1016A000002BFBD106E0CB68C5681B682D68AB42F8
:1016B00003DD09680029F6D11AE0C1B1CB68C6681C
:1016C0001B683668B3420CD1838A012B05D008E031
:1016D0001946DB681B68AB4203DB0B68002BF7D1B4
:1016E00029B14B6833B118604A68426004E0FFE7F3
:1016F000012070BD44F8220048600160002070BDE8
:10170000B800002010B503E00468FFF7BBFF2046D7
:101710000028F9D110BD09F0FFBD00002DE9F0410E
:101720000026DFF834800D4F354600BF58F82540BD
:1017300009E0E0680068385C20B1204609F0ECFD63
:10174000266026462468002CF3D16D1C022DEDDBAB
:101750003046BDE8F0810000B8000020B8BE0008A7
:10176000022801DB00207047054951F8200004E001
:10177000C16809680029F6D000680028F8D17047D0
:10178000B80000202DE9F041044601F033F90619B4
:101790001EE000BF00F0DCF8052F00DD052700F09B
:1017A000F7F911480568FFF761FE2C0017D000BF5C
:1017B00001F0F2F8641EFBD1384601F009F91DB1C1
:1017C00000F0E6F96D1EFBD1FFF78EFE01F0E4F8A4
:1017D00001F010F9371A002FDCDCBDE8F081384643
:1017E00001F0F6F8F0E70000040100202DE9FC47C5
:1017F00006005FD000F0CCF900F038F93C4C81468F
:101800002068B0F9228000F04DF9216807468A8CE3
:10181000D01B888441E000BF47F6FF71304601F0DD
:10182000FDFC82460146304601F0CEFC21680546AB
:1018300091F82C0000F00300012841D002283BD091
:1018400000204A8C101A4884ADF800006A1E10442B
:10185000ADF80400888CADF80200A9F1010108443C
:10186000ADF806006A465146304601F08FFA21680D
:10187000BDF8020088845146304600F069FF0644F6
:1018800030780A281ED00D281CD0BDF80000216831
:1018900028444884307818B1761C30780028BBD1B1
:1018A0002068818C39448184818D21F003018185F8
:1018B00001F072F8BDE8FC8705EBD5704010C0E779
:1018C0002846BEE7206890F82C1001F0030101299A
:1018D0000BD0022909D0018C418431780A29D9D151
:1018E000828C02EB09018184D4E7A0F82280F4E71E
:1018F000A000002070B514460D46064600F048F9D9
:1019000005480068458484843046FFF76FFFBDE8D2
:10191000704001F041B80000A00000202DE9F04126
:1019200007460A4815460E460068B0F92C0040F0FC
:10193000020000F06BFE04462A4631463846FFF7A7
:10194000D9FF2046BDE8F04100F060BEA0000020B5
:1019500010B5002400E0012400F004F80028FAD1BA
:10196000204610BD064810B50068002410B180471D
:1019700000B1012405F01AFE00B10124204610BD7B
:10198000C00000202DE9FC411C4615460E460746C6
:1019900000F0FEF810480068C16C006D0F4406446A
:1019A0000D440444ADF80070ADF80450ADF8026089
:1019B000ADF80640684606F05FF907E023462A4680
:1019C0003146384602F038FB06F018F90028F5D108
:1019D00000F0E2FFBDE8FC81A0000020034951F8BF
:1019E0002000C1688A6A082110470000B800002062
:1019F00010B500F0CDF802F04FFB02F0C9FB044631
:101A000000F0CAFF204610BD10B5044600F0C0F833
:101A1000054800210068C069426820469047044696
:101A200000F0BAFF204610BDA000002070B50C46A3
:101A3000054600F0ADF8064821460068C0694268D6
:101A400028469047044600F0A7FF204670BD0000DE
:101A5000A000002010B500F09BF802F025FB02F07A
:101A600097FB044600F098FF204610BD10B500F02B
:101A70008FF804480068C069447E00F08DFF20465E
:101A800010BD0000A000002070B50C46054600F017
:101A90007FF82146284601F0DDFBBDE8704000F0EC
:101AA0007BBF000010B5002400F072F80B480068FE
:101AB00090F82C1001F00C01042904D0082906D05C
:101AC0000C2907D103E0C069047E641E02E0C069EE
:101AD000007E440800F060FF204610BDA0000020FA
:101AE000024951F82000006900687047B8000020E2
:101AF000024951F82000006940687047B800002092
:101B000070B50D46044600F043F8204608F032FD5B
:101B10000446284608F036FD044300F03DFF204609
:101B200070BD0000144810B5016821F0010101608A
:101B30001248012181601249016000681149884200
:101B400000D0FEE701F008F90F492E20087000F0E0
:101B500057FF0E4808F098FDFFF79EFB0AF0D6F8F5
:101B600004460021084600F023FD05F089FDFFF73B
:101B70006FFB204610BD0000002000E00030024056
:101B8000C2A507F4CDB5E8B59400002018F50020F3
:101B900070B51F4CE06820B100F024FF61688842F6
:101BA00004D000F057FF00F01DFF6060E068401CAB
:101BB000E060012825D100250AE000BF00F012FFF7
:101BC000216901EBC5110968814205D0D1B16D1CB5
:101BD000A0688542F2DB00252068854211D00028EC
:101BE0000EDBFFF79BFD2268216901EBC212D06773
:101BF000084A01EBC510011D1160C06FFFF782FD9F
:101C0000256070BD216901EBC5110860E4E70000A3
:101C1000F8000020A00000201CB5040004D10E48EC
:101C20000068046E002C16D0FFF7B2FF2046FFF7C5
:101C300025FC009044696846FFF75EFC4CB12046E5
:101C4000FFF71CFC019081688968884701A8FFF7AD
:101C500053FC00F0A1FE1CBDA000002001490A4673
:101C600000F002B801F0FFFF2DE9F04387B0154600
:101C70000C465FEA000846D0FFF78AFF002000F01C
:101C80006DFC814621480068066E4046FFF7F6FB72
:101C900000900068806900F02DFC074640F6FF7058
:101CA000001904D10098B0F90440B0F9065000982A
:101CB000611E0289ADF804401144ADF80810418955
:101CC000681E0844ADF80650ADF80A0005F0C8FAE1
:101CD0006846FFF711FC01A805F0CEFF06E02A4692
:101CE0002146404600F028FB05F088FF0028F6D189
:101CF000384600F0FFFB304600F06AF9484600F035
:101D00002DFC00F049FE07B0BDE8F083A0000020E4
:101D10002DE9FE4F984691468A46834600270C9E41
:101D2000FFF736FF174818490068407C51F82040FB
:101D3000E1680968042903D02468002CF8D100E088
:101D400014B9FFF70DFD04460121E068C26A204680
:101D50009047050011D02469A0688047401C02D13B
:101D60000A4C46F001060096CDE9015443464A4626
:101D70005146584600F0C6F9074600F00DFE3846B9
:101D8000BDE8FE8FA0000020B800002020DA000887
:101D900038B504001CD0FFF7FBFE0E480068006E4B
:101DA000A04201D100F098FB2046FFF767FB0090AE
:101DB000406908B100F0D9FD00980068FFF760FCA9
:101DC0006846FFF799FB2046FFF7B2FA00F0E4FD02
:101DD00038BD0000A00000202DE9FF4F83B0454C26
:101DE000DDF840B098468A4607002BD002A901A82A
:101DF000FFF74AFEB7F90060002E00DA0026B7F9B7
:101E00000250002D00DA00252068A146407C02F037
:101E10007FF901990144491EB7F9040008F02FFD2C
:101E20000446D9F80000407C02F078F90299014498
:101E3000491EB7F9060008F022FDA71B7F1C441BB2
:101E4000641C0BE0206800263546407C02F060F9F7
:101E500007462068407C02F061F90446B8F1000FA3
:101E600001D1C4F10008002F01DD002C03DC0020AB
:101E700007B0BDE8F08F43463A4629463046CDF8D4
:101E800000B0FFF745FF5FEA000909D000F060F8F5
:101E90008046484600F09CF80027DFF85CB01FE061
:101EA0005146059888470120E2E7E11B414502DAE7
:101EB000484600F071F83FB1EA193146484600F053
:101EC000B5F84846FFF7A8FE514605988847DBF865
:101ED000001009B1002088474846FFF7BFFE47447D
:101EE000A742E2DB4846FFF753FF002000F070F8FE
:101EF000BDE70000A0000020A401002038B50500C7
:101F00004FF0000411D0FFF743FE2846FFF7B6FA62
:101F10000090006800698068804702F0D5FC0446A4
:101F20006846FFF7E9FA00F037FD204638BD38B5BE
:101F30000446FFF72DFE2046FFF7A0FA00F1180433
:101F400000906846FFF7D8FA00F026FD204638BD1D
:101F500038B504460025FFF71BFE1CB90848006889
:101F6000046E44B12046FFF789FA0090B0F90A5098
:101F70006846FFF7C1FA00F00FFD284638BD0000A3
:101F8000A000002010B506F03DFB002803D0BDE8FE
:101F9000104000F07DB810BD38B50C46050004D1E6
:101FA0000A480068056E002D0FD0FFF7F1FD2846A6
:101FB000FFF764FA0090B0F90A10A14200DD4481F5
:101FC0006846FFF799FA00F0E7FC38BDA000002052
:101FD000F8B50546FFF7DCFD134E3068046E65B1B9
:101FE0000CB100F079FA05F031FA2846FFF746FA0D
:101FF000009031680A6E1AB106E000F06DFA0EE04A
:10200000D1E90223C1E919230D660068FFF73AFB05
:102010006846FFF771FA02F0C9FA02F05FFA00F0C1
:10202000BBFC2046F8BD0000A00000207CB5154692
:102030000E46040004D115480068046E002C24D01C
:10204000FFF7A6FD2046FFF719FA2DB20090C580D4
:1020500034B2848002F042FA0098406980B1FFF700
:102060000DFA009A0190B2F908108180B2F90A20A5
:10207000C28011B10AB10480458001A8FFF73CFA83
:102080006846FFF739FA00F087FC7CBDA00000200D
:1020900001490A4600F002B801F0FFFF7FB515467E
:1020A0000C4606002DD0FFF773FD3046FFF7E6F92A
:1020B00040F6FF710190091903D1B0F90440B0F95D
:1020C00006500289611E1144ADF80840ADF80C10AD
:1020D0004189681E0844ADF80E00ADF80A5001A809
:1020E000FFF70AFA02A805F0C7FD06E02A462146D6
:1020F000304600F009F905F081FD0028F6D100F026
:102100004BFC7FBD2DE9FF4FDFF8E0B083B01C46EC
:10211000DBF80010DDE91060924600274B7C3A4660
:102120001299FFF771FA05005DD028698068804731
:1021300002F0CAFB81460AFB09F0C01D4FEAD00835
:10214000FFF7AAF9F10705D1C11700EB91708010D4
:1021500000EB4000002C06DC1838B0FBF8F06442BD
:10216000A04200DC0446F00707D10090DDE903013E
:102170002346524600F06CFB0746002C03DC284641
:10218000FFF77EFA2FE004FB08F01830F10702D0C9
:10219000FFF7A0F801E0FFF7ACF806001CD0FFF74E
:1021A0006DF901900560039981800499C180A0F8C0
:1021B00008A04481C0F80C80C0E9049701A8FFF78B
:1021C0009BF91298AE602861DBF80000407CA861A2
:1021D000304607B0BDE8F08F2846FFF751FA17B137
:1021E0003846FFF7A5F80020F3E70000A000002024
:1021F0002DE9F74F92B090461298FFF73FF90B90F8
:10220000B0F908100691B0F90A100D910068006944
:10221000D0F804B00BA8FFF76FF9384C384D2068A0
:10222000407C55F82000C1688A6A082190478146A1
:10223000182801D34FF020092068407C55F8200071
:102240000069079003C80C902E48814201D00120FC
:1022500000E000201090002000F012FC002849D17E
:102260000026DDE91207B2460FAB069C4546761CF8
:102270000193FFF75CFE014604FB0AF001EB8002CC
:10228000234629463846CDF800B000F0D7FD0500BA
:1022900030D01098D0B1DDE906134A46284600F048
:1022A000A1FC98B9DDE906702C46D0F810C0BCF14D
:1022B000000F05D0294604233A460846E04705E0CA
:1022C0000C992068884701C47F1EF9D10020CDE910
:1022D0000305059001200090CDE901094146034620
:1022E00008F10108069A139801F042FD0D98401E6E
:1022F0000D90B6D115B0BDE8F08F0000A000002011
:10230000B8000020DB410008F8B515460E46074628
:10231000FFF7B4F8009000681621C068426A0020F8
:10232000904704466846FFF7E7F8002C03D02A469A
:1023300031463846A047F8BDF8B515460E46074663
:10234000FFF79CF8009044696846FFF7D5F83846D7
:10235000FFF7D4FD0346082800DD2CB12A4631469C
:10236000384609F007F8F8BD2A463146384609F0E4
:1023700099F9F8BD10B5002821D009B30AB3B1F915
:102380000040B2F900309C4200DA23460380B1F9E4
:102390000240B2F902309C4200DA23464380B1F990
:1023A0000440B2F904309C4200DD23468380B1F939
:1023B0000610B2F90620914200DC1146C18010BD22
:1023C00011460A6802604968416010BD00280BD0C0
:1023D00003880B4403808388194481804188114419
:1023E0004180C1881144C1807047000070B500254C
:1023F000FFF7CEFB094CD4E9002082420AD0D2E993
:102400000056104608F0D4F820603146284605F002
:102410002BFA012500F0C0FA284670BD8C0100207F
:102420002DE9FC41154DDDE908742D68B5F908600A
:10243000864200DD3046B5F90C60964200DA32463D
:10244000824219DBB5F90A608E4200DD3146B5F9EA
:102450000E509D4200DA2B468B420DDB00E02C46ED
:10246000E5682D6825B1042D02D02568002DF6D130
:10247000CDE9007401F01AFFBDE8FC81A000002046
:10248000B0F90220B1F906309A4213DCB1F902200A
:10249000B0F906309A420DDCB0F90020B1F90430F1
:1024A0009A4207DCB1F90010B0F90400814201DC66
:1024B00001207047002070470146024878220068DA
:1024C000FDF790BFA0000020024978220968FDF7BF
:1024D00089BF0000A000002010B5FFF759FB01F0F4
:1024E000B1FF02F063F804F0BBFEBDE8104000F05D
:1024F00053BA000070B5094D04462868467CFFF7C2
:1025000047FB022C03D228684474FFF7E5FF044818
:10251000046000F041FA304670BD0000A0000020C9
:102520003001002010B50446FFF732FB204601F0D1
:10253000ABFFBDE8104000F02FBA10B50446FFF71E
:1025400027FB204601F0D8FFBDE8104000F024BA78
:1025500001498860704700009400002010B50446CF
:10256000FFF716FB204601F0D9FF044600F014FAED
:10257000204610BD70B50446FFF70AFB044800680A
:10258000C56904B1C46100F007FA284670BD0000B7
:10259000A000002070B50546FFF7FAFA034800686E
:1025A000847E857600F0F8F9204670BDA0000020FA
:1025B00070B50C460546FFF7EBFA09482246058040
:1025C0000848048008480068417C084850F8210009
:1025D000C1680B6A29469847BDE8704000F0DCB935
:1025E000D0000020D2000020A0000020B800002071
:1025F00070B50546FFF7CCFA03480068047E0576FF
:1026000000F0CAF9204670BDA000002070B5044655
:10261000FFF7BEFA04480068B0F92C50848500F03A
:10262000BBF9284670BD0000A000002070B504462C
:10263000FFF7AEFA04480068B0F92A50448500F06C
:10264000ABF9284670BD0000A000002002480068D9
:10265000002800D0004770479801002002498A688E
:1026600002B98860FFF7F2BF8C01002010B50400AA
:102670000ED0FFF78DFA204608F050FB204608F0F8
:1026800023FE2046FEF754FEBDE8104000F084B95A
:1026900010BD38B50C46050011D0FFF779FA284671
:1026A000FEF7ECFE00908089204201D0012400E07A
:1026B00000246846FEF720FF00F06EF900E00124D8
:1026C000204638BD38B50546002028600648046815
:1026D00044B12046FEF7D2FE0090006928606846AB
:1026E000FEF70AFF204638BDF801002038B5040087
:1026F0004FF000000D46086011D02046FEF7BEFEE8
:102700000090846844B16846FEF7F6FE2046FEF766
:10271000B5FE0090006928606846FEF7EDFE204691
:1027200038BD00002DE9F041084E044605683068C8
:102730000168284688470746306841682846884728
:10274000284420603846BDE8F0810000A400002045
:102750002DE9F0410C4606460025064F05E0386895
:1027600041683046884706440544641EF7D228462F
:10277000BDE8F081A40000202DE9F0411E46069C32
:102780001746884605463A46A8687F1C3346D0F867
:1027900004C041462846E047641EF4D1BDE8F081FC
:1027A00070B5B0F90040091BB0F904408C422CDD33
:1027B00000F11404B0F902500069521B02FB004002
:1027C000CA1800EBE104521ED010B0EBE10501F095
:1027D00007034FF0FF0102F0070221FA03F0C2F1F4
:1027E000070201FA02F1CEB221780FD001436D1E2B
:1027F00004F8011B002D05DDFF2229462046FDF7C8
:1028000011FE2C4420783043207070BD30400143CD
:10281000217070BD10B5B0F90030B0F90240C91A8E
:1028200000F114030069121B02FB003000EBE10011
:1028300001F0070302788021D9400A43027010BDDD
:10284000B0F90610026951431430FDF7F2BD0000E3
:102850002DE9F843804602F10F000011470003FB09
:1028600007F01C46154689461430FEF742FD060067
:1028700018D0FFF78DF93046FEF700FE0090A0F863
:102880000080A0F802908580C48007498160012102
:10289000818107616846FEF72FFE00F07DF8304623
:1028A000BDE8F8830020FBE7ACDA000870B5B0F9AA
:1028B0000660B0F904400B6800F11405964220DD73
:1028C0000069A34202FB005000EBE30219DAA4F115
:1028D00001044FEAE400A0EBE30512F8010B03F05A
:1028E000070400FA04F0C4B208E055B112F8014B35
:1028F00003F10803A5F1010523F00703002CF4D030
:1029000008E0002070BD00BF4FEA44604FEA106449
:1029100003F101032006F7D5FF2C0AD0184605E085
:102920004FEA44644FEA146400F101006606F7D4EC
:1029300000E0D81DC443640706D007E012F8014B3D
:10294000FF2C0FD100F108006D1EF7D5A0EB03009E
:1029500000F101000B6070BD4FEA44624FEA12645F
:1029600000F101002206F7D4F0E738B50546FFF77D
:102970000FF92846FEF782FD00908189491E0CB2AE
:1029800084816846FEF7B8FD14B92846FEF7D0FCEE
:1029900000F002F838BD00000348C168491EC1605C
:1029A00001D100F063B87047F800002010B54FF473
:1029B00048410548FEF7B4FC8020FEF787FDBDE8DE
:1029C00010400248FFF7C4BDFC2B0020ECD50008E6
:1029D00008B56A46002102F0D3FD08BD0120FFF7CB
:1029E000F7BF00000248006890F837007047000009
:1029F0007000002008B5684602F066FE08BD0000C1
:102A000008B56B46002202A1034802F06BFA08BD2C
:102A10004B657953656D000034F4002008B56B46B2
:102A2000012206A1074802F05DFA06486B46002223
:102A300005A11C3002F056FA08BD0000446973700D
:102A400053656D00FCF300204576656E7453656D2B
:102A5000000000001CB501A8002300901A4619468A
:102A6000014802F061FA1CBDFCF3002008B56A467B
:102A70000021024802F0DAFA08BD0000FCF3002051
:102A80000EB508B102AA00E00022002301A96846A1
:102A900000F052FB0EBD0000074910B5CC6818B11C
:102AA0000120C860801E03E00020C8606FF07F40F6
:102AB00001F048F9204610BDD801002010B5082AC1
:102AC0000EDC0346012A1AD0022A58D0042A78D0F4
:102AD00010F8042B03F8012B491EF9D1012010BD79
:102AE000102A0ADC0222022AF8D1024630F8043BFE
:102AF00022F8023B491EF9D1F0E7002010BD10F882
:102B0000042BD207120E491E34D010F8044B491E74
:102B100004F0010442EA84122CD010F8044B491E40
:102B200004F0010442EA441224D010F8044B491E78
:102B300004F0010442EA04121CD010F8044B491EB0
:102B400004F0010442EAC40214D010F8044B491EF8
:102B500004F0010442EA84020CD010F8044B491E30
:102B600004F0010442EA440204D010F8044B04F0DB
:102B70000104224303F8012B0029C0D1AEE710F86D
:102B8000042B9207120E491E15D010F8044B491E53
:102B900004F0030442EA04120DD010F8044B491E5D
:102BA00004F0030442EA840205D010F8044B04F058
:102BB00003042243491E03F8012B0029DFD18DE7CE
:102BC000FFE710F8042B1207120E491E05D010F86B
:102BD000044B04F00F042243491E03F8012B002983
:102BE000EFD17BE72DE9F0411E680D460446082A27
:102BF00009DC0746012A21D0022A62D0042A7CD0AF
:102C0000082A1AD195E0102A03DC02200228F8D104
:102C100002E00020BDE8F081D3F810C02746BCF1E7
:102C2000000F04D00A462146022308468AE001CC60
:102C3000B04727F8020B6D1EF9D18BE001CCB047ED
:102C4000C0074FEA10686D1E36D001CCB04748EA85
:102C5000801000F0FF086D1E2ED001CCB04748EA6E
:102C6000401000F0FF086D1E26D001CCB04748EAA6
:102C7000001000F0FF086D1E1ED001CCB04748EADE
:102C8000C00000F0FF086D1E16D001CCB04748EA26
:102C9000800000F0FF086D1E0ED001CCB04748EA5E
:102CA000400000F0FF086D1E06D001CCB04740EA9E
:102CB000080000F0FF086D1E07F8018B002DBDD144
:102CC00048E001CCB04780074FEA10686D1E18D06D
:102CD00001CCB04748EA001000F0FF086D1E10D08C
:102CE00001CCB04748EA800000F0FF086D1E08D014
:102CF00001CCB04740EA080000E007E000F0FF0820
:102D00006D1E07F8018B002DDBD123E001CCB0470D
:102D100000074FEA10686D1E06D001CCB04740EAAC
:102D2000080000F0FF086D1E07F8018B002DEDD1A3
:102D300010E0D3F810C0BCF1000F05D00A460146E0
:102D400001233846E04705E001CCB04707F8010B06
:102D50006D1EF9D101205DE70A4810B5816900298F
:102D60000ED101218161FFF721FE01F031FC0549FF
:102D700005481C310860BDE81040084600F080BBE3
:102D800010BD00009400002029A900087CB506466B
:102D900028480D46006868B1002004F06DFF06E089
:102DA0006A462946304605F0EFFC04F027FF00286C
:102DB000F6D17CBD106800901F4C506801902268CD
:102DC000BDF8000032F84C1F0844ADF80000BDF813
:102DD000020091880844ADF80200BDF80400118893
:102DE0000844ADF80400BDF8060091880844ADF829
:102DF0000600684604F040FF0EE000BF2068BDF802
:102E000000106A464184BDF802108184294630468C
:102E100005F0BAFC04F0F2FE0028EFD1206830F88B
:102E2000221F428D891A01804188C28D891A4180F2
:102E30007CBD0000CC000020A00000202DE9FF4F49
:102E400000208BB004460146009019981D46164696
:102E5000016007AB002203A902A800F06DF918B1C8
:102E600000200FB0BDE8F08F0798854200DD0546D1
:102E70005C4F0A955C493868407C51F820100491F9
:102E800009690691FEF7AAFD05903868407CFEF7B7
:102E90002FFE56498146884204D05549894501D0C4
:102EA000012000E00020099001CE18998847824651
:102EB0005FEA106B71D0009870BB0B9800EB0408B0
:102EC00048480068B0F90800404503DDA0EB08075A
:102ED000804600E000270299049801EB840101EB91
:102EE0008701CDE90010DDE90A010A180C9B089260
:102EF000521E19464046FFF793FA012000900598AC
:102F000018280ADA0298DDE9052300EB840000EBBB
:102F10008700E91B00F070F810E0099870B1029882
:102F200000EB840000EB87070898A0EB08084946EF
:102F30003868884701C7B8F10108F8D12D48C06941
:102F400060B3DDE9020700EB840007EB8402CDE902
:102F50000202284C361F2B46E46930460299A047EE
:102F6000FF203168B0EB116F02D10299096804E0CB
:102F7000029A1268B0EB126F01D1039A11600299A4
:102F8000361D091D02910399091D03916D1EE8D19B
:102F900019990120039708601DE01EE0FFE7BBF1CF
:102FA000FF0F0ED00298CBF1FF0250F824105046CC
:102FB00000F00EFA039941F82400199901200860E5
:102FC00005E00298039950F8240041F82400641C9D
:102FD0006D1E7FF469AF039843E7039941F824A07D
:102FE000EBE70000A0000020B8000020DB41000853
:102FF000D9410008B00100202DE9F05F0C1E16DD5C
:103000005E68014600EB8405082A12DC611E012A75
:1030100028D0022A48D0042A6AD0082A07D10719E2
:1030200017F8010DB04745F8040D641EF8D1BDE84E
:10303000F09F102AFBDC0222022AF8D15F693FB11F
:103040002246BC46BDE8F04F02235DF804EB604722
:1030500001EB440737F8020DB04745F8040D641E34
:10306000F8D1E4E700EBE1002D1F10F801A981463B
:1030700001F00707802020FA07F800BF0AEA0800DD
:10308000C7F10701C840B04745F804093FB17F1EAA
:103090004FEA4860000E8046641EEFD1C7E707275D
:1030A00019F801A90120F6E700EBA1002D1F01F09E
:1030B000030710F801A981467900C02020FA01F821
:1030C0004FF0060B0AEA0800ABEB4701C840B047D7
:1030D00045F804093FB17F1E4FEA8860000E804624
:1030E000641EEFD1A3E7032719F801A93846F6E7D4
:1030F00000EB610001272D1FA74310F801A98146AD
:10310000B900F02020FA01F84FF0040B0AEA080099
:10311000ABEB8701C840B04745F804093FB17F1EBB
:103120004FEA0870000E8046641EEFD17FE701274A
:1031300019F801A90F20F6E72DE9F047204C0646C3
:103140001F46A06990468946002540B90120A0612C
:1031500004F120011B480860084600F091F96069FD
:1031600010B900F0D8FF606107B138604EB1A068B7
:1031700030B960698000FEF705F9A06000B901254B
:103180003060B9F1000F0AD0E06830B960698000A2
:10319000FEF7F8F8E06000B90125C9F80000B8F1C1
:1031A000000F0AD0206930B960698000FEF7EAF8A4
:1031B000206100B90125C8F800002846BDE8F08765
:1031C000B0010020B1A9000873B5124A01A9009806
:1031D0001268904700240090C8B10F490025096883
:1031E000C969496959B10A684AB1019990477CBDDA
:1031F0006846FFF797FA0546FEF706FC0444019877
:10320000401E0190F4D5284600F032F804442046D0
:103210007CBD000088010020A000002073B50D4691
:103220000098002490B10A490968C969496959B1EF
:103230004A684AB1294690477CBD6846FFF772FA52
:1032400020B10A2802D0641CAC42F6DB20467CBDCB
:10325000A0000020044AB2F9002002600348B0F93F
:103260000000086070470000D0000020D20000205D
:1032700038B5002469460094FEF7D8FB00998142D6
:1032800000DD0C1A204638BDB0F90030B1F900203D
:10329000934200DA0280B0F90230B1F90220934281
:1032A00000DA4280B0F90430B1F90420934200DD25
:1032B0008280B0F90620B1F906108A4200DDC18093
:1032C000704770B5B1F90040B2F900309C4200DDA2
:1032D00023460380B1F90250B2F90240A54200DD55
:1032E0002C464480B1F90460B2F90450AE4200DAD1
:1032F00035468580B1F90610B2F90620914200DB0F
:103300001146C1809D4201DBA14201DA002070BD5F
:10331000012070BD014602480068407C00F002B800
:10332000A0000020F8B501260F46054602284BDA1A
:10333000264C5FB3012F02D0022F45D116E054F87E
:10334000250088B92846FEF70BFA0090B8B3C0688C
:103350000D21426A68469047020035D039460098F0
:10336000904754F825000026401C2BE0FEF7F8F9A2
:10337000009020B3C0680D21426A68469047020061
:1033800022D039460098904700261DE054F82500C9
:1033900001280FD12846FEF7E3F9009050B1C0682C
:1033A0000D21426A68469047020003D039460098D2
:1033B0009047002654F8250010B1012101E003E0F8
:1033C0000021401A44F825003046F8BD8001002055
:1033D00070B5FF23B3EB116F29D0C3B200F47F4562
:1033E00000F47F04060E5343554354435643C2F141
:1033F000FF00CAB202FB003201F47F4303FB00531B
:1034000001F47F0505FB0044090E01FB0065C2F3D2
:1034100007204FF47F4101EA1322090201EA142137
:103420004FF07F43104303EA05430843184370BD40
:103430002DE9F04F1546DDE90CB90C4606464FF074
:10344000000818E00B9F4FF0FF0A01CE08CCAAEB52
:10345000106202FB09F2B2FBFAF1CAB21946FFF799
:10346000B7FF20F07F4001C57F1EEED1099808F11B
:10347000010804EB8004D845E4D3BDE8F08F0000D8
:1034800002494A6942604861704700009400002088
:1034900010B502E000F8011B521E0AB18307F9D1F2
:1034A000930818D001EB014402F0030204EB04245A
:1034B00005E0046044608460C46010301B1F042B6E
:1034C000F7DA01E010C05B1E002BFBD103E000BF68
:1034D00000F8011B521E002AFAD110BD10B5830757
:1034E00002D520F8021B521E530810D001EB0144F4
:1034F000042B08DB046044608460C46010301B1F30
:10350000042BF7DA01E010C05B1E002BFBD1D207C1
:1035100000D0018010BD000010B513460A680728CE
:103520000FD2042A0DD21A44D31702EB937323F05F
:103530000303D21A0A60064901EB801000EB021067
:1035400010BD014603A008F0CDFA002010BD000018
:103550002820002073686170653A202564206F720E
:1035600020666F726D3A202564206572726F722139
:103570000000000010B5072807D2042905D2064A2A
:1035800002EB801000EB011010BD0A46014603A0BB
:1035900008F0A8FA002010BD282000207368617090
:1035A000653A202564206F7220666F726D3A20257F
:1035B00064206572726F722100000000072817D224
:1035C000DFE800F004070A0C0F1114004FF47F002D
:1035D00070474FF47F407047FF2070474FF6FF70F1
:1035E0007047054870474AF2FF50704703487047DC
:1035F0006FF07F4070470000A52A2A0000FFFF00FF
:10360000FEE72DE9FE4307464FF4FA784046FEF701
:10361000B9F800256FF07F46785D012810D10024AD
:1036200001AB02AA2946204601F0BAF90096DDE96D
:10363000013201210A20FDF758F9641C102CEFDB40
:103640006D1C1F2DE8DB4046FEF79CF8BDE8FE83AD
:1036500001B502E00098401E009000980028F9D1C2
:1036600008BD00B597B03C2108A8FCF7E2FE1C217C
:1036700001A8FCF7DEFE0121080203F03DFA02205A
:10368000019000200290052103910490059006907E
:103690004FF0805107910890099008210A9110215C
:1036A0000B910C900E900F901090090211911290B6
:1036B0001390149001A81590169008A8FDF710FA21
:1036C00001210020FDF7FAF917B000BDF8B501217E
:1036D000084603F01FFA0121602003F01BFA0324BF
:1036E0008DF8024018258DF803504CF20370ADF8A8
:1036F0000000284E69463046FDF778FA4FF6807094
:10370000ADF80000244F69463846FDF76FFA3020C7
:10371000ADF800008DF802408DF803506946304640
:10372000FDF764FA0121602003F0F4F98020ADF880
:1037300000008DF802408DF8035069463046FDF7D1
:1037400055FAF014ADF800008DF802408DF80350E2
:1037500069463046FDF74AFA0220ADF80000102510
:103760008DF803508DF8024069463846FDF73EFA61
:103770002C02ADF800408DF8035001208DF80200B6
:1037800069463046FDF732FA21463046FDF783FAA6
:10379000F8BD0000001401400018014010B5FFF70B
:1037A00095FFFFF75EFF00F09BF9BDE8104000F0C9
:1037B00001B8000010B500F06FF9B4490880B44AB0
:1037C000B449A0F513434FF0C044413B7ED0A0F56F
:1037D0000543523B7BD1CF20208000200880C120B0
:1037E000088030200880ED2020806420088003209D
:1037F00008801220088081200880E8202080852011
:1038000008801020088078200880CB202080392074
:1038100008802C20088000200880342008800220A6
:103820000880F720208020200880EA2020800020C7
:1038300008800880C020208021200880C1202080AE
:1038400011200880C52020802D200880332008808A
:1038500036202080002008803A20208055200880D3
:10386000B12020800020088017200880B62020800A
:103870000A200880A2200880F620208001200880ED
:1038800030200880F2202080002008802620208020
:1038900001200880E0202080D020088000200880BF
:1038A00002200880072008800B2008801A2008804A
:1038B000312008805420088040200880292008807A
:1038C0001220088008800880172001E029E027E006
:1038D0000880E1202080D02008800020088002207D
:1038E00008800720088005200880252008802D20DA
:1038F000088044200880452008801C20088018206B
:103900000880162008801C2008801D2008801120B7
:1039100020801046FFF79CFE292020802C2020804C
:1039200010BDCF202080002008808120088030201A
:103930000880ED2020806420088003200880122069
:10394000088081200880E8202080852008801020C1
:10395000088078200880CB202080392008802C2007
:103960000880002008803420088002200880F7208A
:10397000208020200880EA20208000200880088005
:10398000B1202080002008801B200880B6202080E5
:103990000A200880A2200880C020208035200880CE
:1039A000C120208011200880C5202080452008806B
:1039B0000880C7202080A2200880F22020800020DC
:1039C00008802620208001200880E02020800F2011
:1039D000088026200880242008800B2008800E20E4
:1039E00008800920088054200880A82008804620EC
:1039F00008800C20088017200880092008800F20EC
:103A000008800720088000200880E1202080002016
:103A10000880192008801B200880042008801020BE
:103A20000880072008802A20088047200880392045
:103A30000880032008800620088008803020088045
:103A4000382008800F20088036202080C820088079
:103A50002A2020800020088008800880EF2008802D
:103A60002B202080002008800880012008803F2033
:103A700008803A20208055200880112020801046A0
:103A8000FFF7E6FD2920208010BD00007C0000200B
:103A9000FCBF02000000026010B504204FF0C044DB
:103AA00020800E490888088808884FF6FF7303EACB
:103AB000002208881043A0F50542523A0DD0D320C9
:103AC000208008880888088803EA002208881043B4
:103AD000A0F51341413900D0002010BD0000026064
:103AE00070B5094C02212046FDF7D3F8074D284652
:103AF000FFF7AEFD02212046FDF7CDF82846BDE8D0
:103B00007040FFF7A5BD000000180140FCBF020097
:103B10002DE9F84F0446884600256FF07F464FF4A4
:103B2000A07700232A46414620460096FCF7DDFE9A
:103B300097FBF4F35B1E63432A46414620460096FA
:103B4000FCF7D3FEA02D0EDD97FBF4F000EBD07058
:103B50004FF0FF3101EB600363432A4641462046A4
:103B60000096FCF7C2FE2544F02DDADB00254FF06D
:103B7000F0094FF0A00A2B4600224146204600964D
:103B8000FCF7B3FE99FBF4F2521E62432B4641460A
:103B900020460096FCF7A9FE9AFBF4F2521C624301
:103BA0002B46414620460096FCF79FFE2544BD4229
:103BB000E1DBFCF7EBFEBDE8F84FFCF7ABBE000025
:103BC00008B56B460A2202A1044801F03BF808BD83
:103BD0004B65794D7367517565756500D82B00206D
:103BE00010B586B0642190FBF1F300210C4A05A8C2
:103BF0000224CDE90042CDE902100A4609A10E488F
:103C000001F092FD0C4805AB00220CA12C3001F014
:103C100069F905A9084801F0B3FD06B010BD000020
:103C2000D96C000852656E646572496E666F726D7C
:103C300054696D6572000000E01F002052656E64DB
:103C40006572496E666F726D53656D0010B503F055
:103C5000F7F803F0DFF8BDE8104003F0F1B800001A
:103C60002DE9F04390B00020DFF8D480012208EB6A
:103C700000010A71401C0228F9DD88F809200120A2
:103C800008EB800181F84120401C0328F8DD88F80A
:103C90004E20012008EB800181F88220401C03287F
:103CA000F8DD88F88D20002108EB010000F8C42F12
:103CB000427180F8412080F8442080F8812080F80B
:103CC0008520491C0129EFDD002008EB800181F8E7
:103CD0008121401C0328F8DD0025E946002208EB7D
:103CE0008517002107EB021C00200CEB810609EB75
:103CF0000113345C43F82040401C0428F9DB491CC4
:103D00000429F1DB0021501C07EB0016002006EB14
:103D10008104C0F1030309EB031313F8213023548A
:103D2000401C0428F5DB491C0429EFDB521C032A44
:103D3000D7DB6D1C072DD1DB10B0BDE8F083000090
:103D40002820002002490A680860104670470000D9
:103D50000C0200200449054A0968497C52F82110E8
:103D60000969096808470000A0000020B800002089
:103D70002DE9F04F05468DB07C48DDF860901A9C27
:103D800000681E4617464FF0000A78B11B9B199A2F
:103D9000CDF808900593CDE90324DDE91623CDE99C
:103DA0000023046833463A46284682E0DDE91602DD
:103DB00001EB060805EB070C1043A8F10108ACF174
:103DC000010C012806D0C9F10800059000200291DD
:103DD0000890C8E066480268B2F90A30581A00280C
:103DE00006DD361A002E65DD1946199B00FB0344DB
:103DF000B2F90E00A8EB0000002802DD361A002EF2
:103E000058DDB2F90C00ACEB0000002800DD3F1AD1
:103E1000B2F908300020AB4237DD581B3F1A4B4641
:103E2000B9F1080F28D007DC012B0DD0022B13D0DD
:103E3000B9F1040F29D117E0102B1FD0182B20D077
:103E4000B9F1200F21D11CE020F0070304EBE004BE
:103E50001D4400F0070018E020F0030304EBA00469
:103E60001D4400F0030010E020F0010304EB6004A7
:103E70001D4400F0010008E0044404E004EB4004A9
:103E800001E004EB800405440020002F12DD1B9BA1
:103E9000DDF864C0CDE90403CDE902C4CDE90069D1
:103EA000527C34483B4650F82200C26854680A46A7
:103EB0002946A0470DB0BDE8F08F17990298084435
:103EC00009902B49401E00900A68B2F90A308342DB
:103ED00041DCB2F90E10029881423CDB4FF0000B3E
:103EE000D84603950B9434E0BBF1000F05D10B9835
:103EF0004FF0080B10F801AB0B900599ABEB090BD9
:103F00003AFA01F00AFA09F101F0FF0A04D118495E
:103F10000968097C890716D415490968C96B0A68BC
:103F20000C921B9A0AB152F8200008601699039867
:103F3000009B4218521E029900F07EF80C490C9822
:103F40000968C96B08600399169808F101080844CC
:103F50000390B845C8DB0898401C08900998029067
:103F6000199804440898B042A7DBA3E7CC000020CE
:103F7000A0000020B8000020F0B40C4612490968E7
:103F8000B1F90A30A3421CDCB1F90E30A34218DBB0
:103F9000B1F90830834200DD1846B1F90C30934284
:103FA00000DA1A4682420CDB4B7C084951F8235058
:103FB00013462246E9688E6801462846B446F0BC9E
:103FC0006047F0BC70470000A0000020B80000204F
:103FD0000A46174930B40968B1F90A30934225DC22
:103FE000B1F90E30934221DBB1F9083083421DDC78
:103FF000B1F90C30834219DB0B7C0E4CDB0709D086
:10400000497C54F82130D968CC690146A44630BCBB
:1040100018466047CB6B497C1B6854F82140E16827
:104020008D6901462046AC4630BC604730BC7047C5
:10403000A0000020B800002038B5134C2468B4F963
:104040000850854200DD2846B4F90C50954200DA4C
:104050002A46824217DBB4F90A508D4200DD294618
:10406000B4F90E509D4200DA2B468B420BDB0093D5
:10407000647C064B53F82440E3681D6913460A46E6
:1040800001462046A84738BDA0000020B800002007
:10409000082106F0BCB9000002480068806B006887
:1040A00070470000A000002002480068C06B006854
:1040B00070470000A0000020024809210068407CF1
:1040C00006F0A5B9A0000020092106F0A0B970B53E
:1040D00000252C462046FDF743FB00B16D1C641CF7
:1040E000022CF7DB284670BD02480068407C00F0D7
:1040F00003B80000A000002010B5FDF731FB002838
:1041000005D0C168CA6ABDE810400221104710BD41
:10411000032106F07CB9032006F0C0B9042106F0A3
:1041200076B90000024801210068407C06F06FB9B2
:10413000A0000020024802210068407C06F067B918
:10414000A0000020AFF300802DE9F041002809D045
:10415000876837B10D4E716819B10468B4F5807F76
:1041600002DD0020BDE8F0813068844200DD0446B5
:10417000002507E057F82500FFF7ECFD716841F8CE
:1041800025006D1CA542F5DB7068EBE718010020E7
:104190000449054A0968497C52F8211009694968AF
:1041A00008470000A0000020B800002010B5084A11
:1041B000084B00F01F01C0F34514C0F3C420515C4C
:1041C0001B5D105C01EB032101EB004010BD000002
:1041D00010D8000830D800087047704710B500F0BC
:1041E0001F01074A074BC0F34514C0F3C4201B5DF1
:1041F000105C515C00EB032000EB014010BD00009F
:1042000010D8000830D8000810B50A4C606860B9B2
:1042100020688000FDF7B6F8606040B104F1080145
:10422000054808600846FFF72BF9002010BD012063
:1042300010BD00001801002069A900082DE9F04117
:10424000FFF745FF0746002528E02846FDF788FAD6
:1042500018B32846FEF74EF980462846FFF718FFA8
:10426000082817DC0F48104950F8250000698842DB
:1042700010D02846FFF728FF0646002408E0E0B2E9
:10428000FFF786FF0246E1B2284600F04DF9641CB4
:10429000B442F4DB4046FEF72DF96D1CBD42D4DB81
:1042A000BDE8F081B800002000D900082DE9FF4FDB
:1042B00083B01646DDE910408B46C0684769426A04
:1042C0007AB1012111A8904705000AD00698CDE9DE
:1042D000000433465A4603991198A84707B0BDE831
:1042E000F08F57480068407CFDF778FB824608282D
:1042F00001DC012005E0BAF1100F01DC022000E032
:1043000004208046002596E04046B8F1010F05D014
:10431000022871D0B8F1040F25D17CE0BAF1090F61
:1043200021D2DFE80AF08605213F3F59595959004B
:10433000039815E001465A461198B847C5F10701A0
:1043400088404FF67F722178EA40114001436D1C8E
:10435000217004EBE50425F00700054109F1010097
:104360008146B042E6DD64E0039817E001465A4614
:104370001198B8470621A1EB450188406B004FF624
:104380003F722178DA40114001436D1C217004EB2B
:10439000A50425F00300054109F101008146B04262
:1043A000E4DD46E0039813E001465A461198B84709
:1043B0000421A1EB850188402178AB000F229A40AF
:1043C0001140014321702C4485F0010509F10100E1
:1043D0008146B042E8DD2CE0DDF80C9007E00146B4
:1043E0005A461198B847207009F1010944444846DB
:1043F000B145F4DD1DE0FFE7DDF80C9007E0014674
:104400005A461198B847208009F1010944444846AA
:10441000B145F4DD0DE0DDF80C9007E001465A46A9
:104420001198B847206009F1010944444846B14554
:10443000F4DD0BF1010B06998B457FF765AF4DE776
:10444000A000002010B50E4C0E492068407C51F8A9
:10445000200050B1C1680968042903D00068002811
:10446000F8D102E008B1FDF756F920680021016695
:1044700000F108014161BDE8104000F02FB80000D4
:10448000A0000020B80000200149096849680847D9
:1044900014010020044909680A7C520701D5C96B40
:1044A00000E0896B08607047A00000207CB5094CD3
:1044B00005462068417C084850F82100C1680A6B15
:1044C0006946904720686A4629460830FEF7F9FE9B
:1044D0007CBD0000A0000020B80000200448016856
:1044E00004484A7C083150F82200C268126B104719
:1044F000A0000020B80000200149096809680847A9
:1045000014010020044909680A7C520701D5896B0F
:1045100000E0C96B08607047A000002001490968ED
:104520008968084714010020F8B515460E46012495
:10453000FDF716F9009058B1C0681021426A68462C
:104540009047030004D02A4631460098984700243B
:104550002046F8BDF8B515460E460124FDF700F9D2
:10456000009058B1C0680B21426A6846904703002A
:1045700004D02A4631460098984700242046F8BDCA
:10458000F8B515460E460124FDF7EAF8009058B13B
:10459000C0680A21426A68469047030004D02A4650
:1045A00031460098984700242046F8BD10B5074CC6
:1045B0002068006BFFF7CEFBFFF7A4FF2068406B7D
:1045C000FFF7C8FBBDE81040FFF764BFA000002064
:1045D000F0B59FB014211AA8FBF72BFF682168469D
:1045E000FBF727FF254D49F241362888B04207D115
:1045F00000231A4622492348FDF72EF804460AE014
:10460000A0F50541523930D000231A461C491D48F7
:10461000FDF722F804464FF4A0773A46F021002037
:10462000FFF798FF3A46F0210020FFF7A9FF00208E
:104630001B901A902888B04201D103201C900220C0
:104640001E901AA92046FCF728FB0F4808900F4837
:1046500009900F480B900F480F900F4B0F4A694677
:104660002046FCF73AFB1FB0F0BD00231A460C4968
:104670000448FCF7F1FF0446CDE700007C00002071
:1046800080BE0008C0BE00089949000875490008AE
:10469000814900085D4900086D0D00080D0D0008F6
:1046A00098BE000810B5012902D04FF0FF3010BDB0
:1046B000FFF774F8002010BD2DE9FF4F8DB01746AD
:1046C000674ADDF870901E9E209812681D460024EF
:1046D0008AB11D9B1F98CDE90293CDE90460DDE905
:1046E0001A03CDE9000314682B463A460D98A047FB
:1046F00011B0BDE8F08F0D9A01EB050802EB070C35
:10470000DDE91A231A43A8F10108ACF1010C012AD2
:1047100006D0C9F108004FF0000B029105909CE013
:10472000504A1268B2F90A40631A002B06DDED1AEE
:10473000002DDDDD21461D9C03FB0466B2F90E3021
:10474000A8EB0303002B02DDED1A002DD0DDB2F93A
:104750000C30ACEB0303002B00DDFF1A0D9B1C1A81
:10476000B2F90830A3420DDDA3EB040C0CEB0003FF
:10477000181A20F007000444A7EB0C0706EBE30629
:1047800003F00700002FB3DD1F9BDDF874C0CDE9F7
:10479000040303968DE82012527C33483B4650F8C0
:1047A0002200C26855680A462146A847A0E71B991F
:1047B0000298084409902B49401E03900A68B2F9F8
:1047C0000A30834243DCB2F90E10029881423EDB8C
:1047D0004FF0000A0D980B96D046009035E000BFD0
:1047E000BAF1000F05D10B984FF0080A10F8014BF1
:1047F0000B900599AAEB090A34FA01F004FA09F4BE
:10480000E4B204D117490968097C890717D415490E
:104810000968C96B0A680C921F9A0AB152F8200005
:10482000086000991A980A180846DDE90213521E1A
:10483000FFF702FC0B490C980968C96B08600099E6
:104840001A9808F1010808440090B845C8DB099897
:1048500002901D980BF1010B0644AB45A7DB47E71F
:10486000CC000020A0000020B8000020002818D0B4
:10487000410817D0810817D0C10817D0010917D0F7
:10488000410917D0010A17D0410A17D0010B15D0E2
:10489000C10B13D0010C11D0810C11D0000E11D01E
:1048A0002020704701207047022070470320704786
:1048B000042070470520704708207047102070477B
:1048C000122070471820704700B50022FFF7CEFF76
:1048D000012804D0811E062903D808220BE00122FA
:1048E00009E0A0F10901072901D8102203E01138DD
:1048F0000F2800D82022104600BD000038B5012145
:10490000082002F007F90120ADF8000010208DF812
:10491000030003208DF802000F4C69462046FCF787
:1049200065F90221ADF8001069462046FCF75EF9F2
:104930002021ADF8001069462046FCF757F9012107
:104940002046FCF7A8F902212046FCF7A4F9202113
:104950002046FCF7A0F938BD000C0140044B02E0F2
:104960001A8820F8022B491E4A1CF9D17047000012
:1049700000000260014908807047000000000260EA
:10498000044A02E030F8023B1380491E4B1CF9D167
:1049900070470000000002604FF0C041088070477F
:1049A00010B500EB8004052000EB4404146001EB1B
:1049B000810100EB4100186010BD10B5401F0A24B2
:1049C00090FBF4F01060491F91FBF4F0186010BDEB
:1049D000FEE770477047000070B50F23C2780126CC
:1049E0000178002A1ED0144A126802F4E062C2F56F
:1049F000E062120AC2F10404D3404578A5408278EF
:104A00001A402A43120101F1E02181F800240078C4
:104A100000F01F018E404009800000F1E020C0F846
:104A2000006170BD01F01F0086404809800000F160
:104A3000E020C0F8806170BD0CED00E00249084341
:104A400002490860704700000000FA050CED00E024
:104A50007047704710B5044600F080F834480022D3
:104A6000027034480270344802703448026034489E
:104A7000026034480270344802703448027034498D
:104A8000086840B13348006828B1096801E0491E50
:104A900004C00029FBD13048027001F0F3F801F0A6
:104AA00065F9204600F0CAFE208800283FD1204644
:104AB00000F014FF2088002839D1204600F016FFAE
:104AC0002088002833D1204600F0D2FF208800281B
:104AD0002DD1204601F002F92088002827D1204658
:104AE00001F0D2F92088002821D1204601F030FBC6
:104AF000208800281BD1204600F0BCFE208800281A
:104B000015D1204601F01CFE208800280FD1204638
:104B100001F0A4FA2088002809D1204601F066FEA1
:104B20002088002803D1BDE81040FFF791BF10BDD9
:104B300020000020210000202E0000207000002016
:104B40007400002028000020290000202A000020F6
:104B500030BE00082CBE00085200002030B5094DC0
:104B600029680020084A002301E008C1401C14689D
:104B7000A042FAD32868116800EB81000349001FA6
:104B8000086030BD2CBE000830BE00087800002050
:104B900010B523480078012840D1FBF7EBFA044612
:104BA0002049087840B1401EC0B2087048B1204684
:104BB000BDE81040FBF7E2BA2046BDE81040FBF725
:104BC000DDBA1948007820B12046BDE81040FBF757
:104BD000D5BA01F045F815490870154900EB4000B9
:104BE00051F820001349086013490968884204D12C
:104BF0002046BDE81040FBF7C1BA50F8901F491C91
:104C000001600E480168491C01600D494FF0805059
:104C100008602046BDE81040FBF7B0BA10BD0000A8
:104C200021000020200000202E000020290000206C
:104C3000441C002074000020700000204C00002064
:104C400004ED00E02DE9F04104460D4690461E4675
:104C5000FBF790FA07460B4820606560414604F177
:104C6000140000F0B5FE04F1080000F040FF064912
:104C70000888401C08803846FBF780FA0020308006
:104C8000BDE8F081515545552C0000202DE9F04F2D
:104C900089B08346DDE912458A4691461F464FF0AA
:104CA0000008002C01D0C4F80080FBF763FA0090E4
:104CB0002B46224639460BF1140000F05DFE0646F5
:104CC000288860B15FEA09400ED50098FBF756FAD4
:104CD00046F2B0102880002009B0BDE8F08F00989F
:104CE000FBF74CFA3046F7E72C48007838B10098CB
:104CF000FBF744FA46F6635028800020ECE7534661
:104D00000522594601A800F0BBFE0098FBF736FAD1
:104D100000F05CF8FBF72EFA0346214A116891F87F
:104D2000350080B1012819D002282CD0032820D0CA
:104D30000026A7F8008046F62E6028801846FBF76C
:104D40001DFA3046C8E7CE6DB1F86000388014B166
:104D50001068006C2060A5F80080EFE70026A7F837
:104D6000008014B11068006C206046F2A910288001
:104D7000E4E70026A7F800800CB1C4F8008047F2F1
:104D8000D9202880DAE70026A7F8008014B110683F
:104D9000006C206045F6C2502880CFE72E0000202E
:104DA000700000202DE9FC4105460E461746984646
:104DB000089CFBF7BFFCCDE9000443463A46314668
:104DC000284600F093FFBDE8FC81000010B51848AC
:104DD000007800282BD117480078002827D1FBF74E
:104DE000C9F9044600F03CFF13490870134900EB71
:104DF000400051F8200012490860124909688842B1
:104E000004D12046BDE81040FBF7B8B950F8901F18
:104E1000491C01600C480168491C01600B494FF0B6
:104E2000805008602046BDE81040FBF7A7B910BDD0
:104E3000200000202E00002029000020441C00201B
:104E400074000020700000204C00002004ED00E001
:104E500070B504460C480078012803D045F68960F7
:104E6000208070BD094D2878FA2803D345F2092027
:104E7000208070BDFBF77EF92978491C2970FBF76B
:104E80007DF90020208070BD210000202E00002030
:104E900070B5044611480078012803D045F68960B2
:104EA000208070BD0E4D287860B1FBF763F929783A
:104EB000491EC9B2297049B1FBF760F946F6635043
:104EC000208070BD46F66450208070BDFBF756F917
:104ED000FFF77CFF0020208070BD00002100002033
:104EE0002E0000202DE9F0410446884615461E4656
:104EF000FBF740F907460A48206065610025A56177
:104F0000C4F8048004F1080000F0F1FD05480188B0
:104F1000491C01803846FBF731F93580BDE8F08146
:104F200053454D41300000202DE9F04F89B0064631
:104F3000129D8B4692461C464FF00009002C01D072
:104F4000C4F80090FBF716F90746D6F81480B8F1BC
:104F5000000F10D0A8F10108C6F814800CB1B06998
:104F6000206074693846FBF709F9A5F800902046DF
:104F700009B0BDE8F08F5FEA0A4007D53846FBF775
:104F8000FDF846F2B01028804046F1E72548007849
:104F900038B13846FBF7F2F846F663502880002017
:104FA000E6E75B460622314601A800F069FD384677
:104FB000FBF7E4F8FFF70AFFFBF7DCF802461A48B4
:104FC000016891F8350068B1012811D002281DD080
:104FD000032814D046F62E6028801046FBF7CEF842
:104FE0000020C5E70CB1086C2060A5F8009013E024
:104FF0000CB1086C206046F2A91028800CE00CB1BE
:10500000C4F8009047F2D920288005E00CB1086C64
:10501000206045F6C250288074691046FBF7AEF850
:105020002046A5E72E0000207000002070B5054640
:105030000E461446FBF77EFB0246234631462846C1
:10504000BDE8704000F028BF70B504460D46164616
:1050500000203080FBF78EF8616909B1656105E0D9
:105060002146098A31B147F25F113180BDE87040B5
:10507000FBF784B86561F9E770B504460F4D2878F1
:10508000002803D045F68A60208070BD00F0E8FD5E
:105090000B4908700B4908700B4900EB400051F8B0
:1050A00020000A4908600A49086001202870FBF7BF
:1050B0001FFA43F69920208070BD000021000020D7
:1050C0002900002028000020441C0020740000203B
:1050D0007000002070B50546FBF74CF80949002424
:1050E0000C8009490C6009490C6009490C600949A8
:1050F0000C81FBF743F801F063FA01F055FC2C80BA
:1051000070BD00003600002048000020580000203C
:1051100060000020381C0020F8B50446694622488B
:1051200000F00AFABDF8000008B12080F8BD6A4618
:105130000021022000F024FABDF8000008B1208010
:10514000F8BDFBF717F8194E00253560FBF716F888
:1051500000201749174A0B681768BB4203D9086833
:105160001268B0FBF2F018B909680A20B1FBF0F040
:105170006A46002100F004FA69460B4800F003F982
:10518000BDF8000008B12080F8BDFAF7F3FF0A4926
:105190000D600A4A31681160094A01211170FAF75D
:1051A000EDFF2580F8BD00002C1F002038000020F6
:1051B00054BE000840BE0008480000203C0000200B
:1051C00044000020704700002DE9FF4F83B00446E3
:1051D000DDE910A8DDE91765139F9346BAF11F0FAB
:1051E00008D13548844205D046F27320288007B0A4
:1051F000BDE8F08F204600F0B7FF4FF00009A5F89A
:105200000090F0070AD0B00708D54546002003E01B
:10521000C5F800902D1D401CB842F9D3129808EB38
:105220008005CDE900762B4642465846069900F0A7
:1052300051F9C4F828B00699E1620499216284F812
:1052400037A02060A5601598606516986060C4F866
:105250002480A763A687002004EB8001C1F87C901E
:10526000401CC0B20028F7D004F16400149900F08B
:10527000AFFB204600F026F8FAF77CFF054694F8CD
:10528000370000F00BFD204600F0B8FD0B48018808
:10529000491C01800A480078012805D007B028463B
:1052A000BDE8F04FFAF76ABF2846FAF767FF07B084
:1052B000BDE8F04FFFF78ABD841B0020500000209E
:1052C000210000207047000070B504460D462A48B2
:1052D000844203D147F24C10288070BD2CB9FAF7F4
:1052E00049FF26490C68FAF749FFFAF743FF0646DB
:1052F00094F83600082837D2DFE800F004080C0CD8
:105300001C080C0C204600F095FD13E0204601F02F
:105310003BF90FE0204601F037F994F834000728F4
:1053200008D2DFE800F00704070404040400204664
:1053300000F010FC04F1640000F002FB204600F0D5
:1053400021F80F490888401E0880204600F00CFF15
:10535000FF2084F836003046FAF710FF002028803E
:10536000BDE87040FFF732BD3046FAF707FF46F65A
:105370002D60288070BD0000841B0020700000207C
:1053800050000020704770B504460D46FAF7F2FE53
:10539000FAF7F4FE29462046BDE8704000F041BF10
:1053A000704700002DE9F05F83468A4614461D468B
:1053B0000026002C00D02660FAF7DCFE81463C4F28
:1053C0003868D0F84480B8F1000F1BD0A8F101086C
:1053D000C0F844800CB1006C2060FBF7ABF90146CB
:1053E0003868026C891AC0F8A410D0F8A8208A4244
:1053F00001D2C0F8A8104846FAF7C0FE2E804046F9
:10540000BDE8F09F5FEA0A4007D54846FAF7B6FEC6
:1054100046F2B01028800020F2E72648007838B124
:105420004846FAF7ABFE46F6635028800020E7E7CF
:1054300000215B460722084600F022FB4846FAF7A7
:105440009DFEFFF7C3FCFAF795FE8046396891F898
:10545000350068B101281ED0032823D046F62E60FF
:1054600028803868446C4046FAF788FE2046C7E733
:105470007CB1086C2060FBF75DF901463868026C6E
:10548000891AC0F8A410D0F8A8208A4201D2C0F826
:10549000A8102E80E5E70CB1086C206046F2A91038
:1054A0002880DEE704B1266047F2D9202880D8E7BB
:1054B000700000202E00002070B505460E461446F0
:1054C000FBF738F90246234631462846BDE87040CE
:1054D00000F010BF10B5029C02EB84024FF0807404
:1054E00042F8044C42F8080C0C3A12481060A2F141
:1054F00030004FF01234C4624FF0033282624FF03A
:10550000023242620362C1614FF011318161D10008
:105510004161611001619100C1604FF0073181600C
:105520004FF0063141604FF0053140F80419510049
:10553000016010BDDD620008044A904203D147F2C9
:105540005B100880704700F031BF0000841B002012
:1055500010B5FBF7EFF80849084A09681368994243
:1055600006D094314A68821A0A608C6822448A60A4
:10557000C3F8980010BD00007000002074000020E7
:105580002DE9F04107460D4614461C4800780028D6
:1055900004D046F663502080BDE8F0814DB1022D65
:1055A00007D0042D06D0082D03D045F625602080B5
:1055B000F2E79FB1FAF7DEFD8046114E0121306817
:1055C00080F8361023462A46394600F065FF2088C9
:1055D00040B14046BDE8F041FAF7D0BD47F27E2029
:1055E0002080D9E7306800F025FC4046FAF7C6FD78
:1055F000FFF7ECFB00202080CEE700002E0000200B
:10560000700000202DE9F0411E46DDE906342B4DE7
:105610002D78002D04D046F663502080BDE8F0813F
:1056200003F00E0547F27E274DB1022D07D0042D61
:1056300009D0082D03D045F625602080EEE716B985
:105640000AB901B958B31E4B1B684FF4FA7CBCFB76
:10565000F3FC66445E434FF47A7CB6FBFCF64FF4F1
:10566000616C00FB0CF0C1EB011100EB81001044F8
:1056700000FB036606B3FAF77DFD8046114F01215A
:10568000386880F8361023462A46314600F004FF79
:10569000208830B14046BDE8F041FAF76FBD278061
:1056A000BCE7386800F0C6FB4046FAF767FDFFF735
:1056B0008DFB00202080B1E72780AFE72E0000207F
:1056C00054BE00087000002070B50546FAF752FD80
:1056D00003490C68FAF752FD00202880204670BD6F
:1056E0005400002008B500F01DF86A460021094862
:1056F000FFF7E2FE08490868401E0860002807D14D
:105700000648006808606A4600210548FFF7D4FE95
:1057100008BD0000781E00206C00002068000020FA
:105720002C1F0020704700002DE9F05F0AAF0446EF
:1057300097E880070D4693461E46FAF71BFD0121A8
:1057400084F82A100C4921606560C4F820B0002557
:10575000A561E56166622785C4F80880C4F80C90ED
:1057600025616561054A1188491C1180FAF706FD1B
:10577000AAF80050BDE8F09F544D52205C00002074
:10578000F8B505460C466846FFF762FB95F82A20F7
:105790002AB30026012A18D0022A09D0032A14D0DD
:1057A0006846FFF775FB47F2413020800020F8BDC6
:1057B000284601F065F90021284601F09BF868466B
:1057C000FFF766FB26800120F8BD0021284601F086
:1057D00091F86846FFF75CFB26800120F8BD68461B
:1057E000FFF756FB47F23D3020800020F8BD000057
:1057F00010B5FAF7BFFC064A1178491C1170FAF788
:10580000BDFCFFF76FFFBDE81040FFF7C1B9000016
:10581000200000204FF0E021401E4861064A106839
:1058200020F07F401060086940F0050008610869B9
:1058300040F002000861704720ED00E0024A0021BC
:10584000118001807047000022000020074C084DA5
:10585000FAF790FC2168491C21602968491C2960DD
:10586000FAF78CFCFFF7F5F8F2E700001C000020C7
:105870003800002000B589B00D4A002111600B22CC
:10588000CDE9061208900C4A05910A480B4B1268A4
:1058900000681B68CDE90132CDE903011F200090AB
:1058A0000023074A07A10C48FFF78EFC09B000BD92
:1058B0001C00002028BE000824BE000820BE0008EE
:1058C0004D58000875432F4F532D494949204964CD
:1058D0006C65205461736B00841B0020024A002118
:1058E000118001807047000024000020F0B5114EA7
:1058F000316832681032104F3B885B1E9DB2002326
:10590000002407E00A604C600C81CC60103110323A
:105910005B1C9BB2AB42F5D30C604C600C81CC603D
:10592000064932680A603A888A80CC800C810480FB
:10593000F0BD000038BE000834BE0008381C00204E
:1059400010B54289002A12D003680A490C681C600D
:1059500043680B60CB8844891B1BCB808B884489B0
:1059600023448B8000214181818101604160104688
:1059700010BD0000381C0020F0B544890025002C23
:1059800019D04468666827890F800AB1E168116000
:1059900021684160B9B14189491E41810B480168C4
:1059A000216004608188491C8180C188491EC180B2
:1059B0001D803046F0BD0D8002B1156046F2925058
:1059C00018800020F0BD05604581E7E7381C002005
:1059D00001810021418181810160416070470000A7
:1059E0002DE9F041DDE906C744890589AC4204D3BD
:1059F00046F293503880BDE8F0811C4EB588CDB199
:105A00003468D4F80080C6F800806D1EB580F58833
:105A10006D1CADB2F580B6F80880A84500D235817E
:105A20004689002556B1DB060ED403681C6004606D
:105A300025600CE045F21D703880DCE704604460AE
:105A400001234381256005E0436823604460438966
:105A50005B1C4381868943899E4200D283816160B9
:105A60002281C4F80CC03D80C5E70000381C00202E
:105A7000024A0021118001807047000026000020AA
:105A80002DE9F0410C46074619460E4D286880F86E
:105A90003420002680F8356000F040FB6CB104F142
:105AA0000806FC6001223946286800F00DF83946E6
:105AB0003046BDE8F04100F01FB82868C68706638D
:105AC000BDE8F0817000002010B5C287016300249A
:105AD000002309E04B600B600B614B610B83CB61D2
